{
  "contractName": "DSToken",
  "abi": [
    {
      "inputs": [
        {
          "internalType": "string",
          "name": "_name",
          "type": "string"
        },
        {
          "internalType": "string",
          "name": "_symbol",
          "type": "string"
        },
        {
          "internalType": "uint8",
          "name": "_decimals",
          "type": "uint8"
        }
      ],
      "stateMutability": "nonpayable",
      "type": "constructor"
    },
    {
      "anonymous": false,
      "inputs": [
        {
          "indexed": true,
          "internalType": "address",
          "name": "_owner",
          "type": "address"
        },
        {
          "indexed": true,
          "internalType": "address",
          "name": "_spender",
          "type": "address"
        },
        {
          "indexed": false,
          "internalType": "uint256",
          "name": "_value",
          "type": "uint256"
        }
      ],
      "name": "Approval",
      "type": "event"
    },
    {
      "anonymous": false,
      "inputs": [
        {
          "indexed": false,
          "internalType": "uint256",
          "name": "_amount",
          "type": "uint256"
        }
      ],
      "name": "Destruction",
      "type": "event"
    },
    {
      "anonymous": false,
      "inputs": [
        {
          "indexed": false,
          "internalType": "uint256",
          "name": "_amount",
          "type": "uint256"
        }
      ],
      "name": "Issuance",
      "type": "event"
    },
    {
      "anonymous": false,
      "inputs": [
        {
          "indexed": true,
          "internalType": "address",
          "name": "_prevOwner",
          "type": "address"
        },
        {
          "indexed": true,
          "internalType": "address",
          "name": "_newOwner",
          "type": "address"
        }
      ],
      "name": "OwnerUpdate",
      "type": "event"
    },
    {
      "anonymous": false,
      "inputs": [
        {
          "indexed": true,
          "internalType": "address",
          "name": "_from",
          "type": "address"
        },
        {
          "indexed": true,
          "internalType": "address",
          "name": "_to",
          "type": "address"
        },
        {
          "indexed": false,
          "internalType": "uint256",
          "name": "_value",
          "type": "uint256"
        }
      ],
      "name": "Transfer",
      "type": "event"
    },
    {
      "inputs": [],
      "name": "acceptOwnership",
      "outputs": [],
      "stateMutability": "nonpayable",
      "type": "function"
    },
    {
      "inputs": [
        {
          "internalType": "address",
          "name": "",
          "type": "address"
        },
        {
          "internalType": "address",
          "name": "",
          "type": "address"
        }
      ],
      "name": "allowance",
      "outputs": [
        {
          "internalType": "uint256",
          "name": "",
          "type": "uint256"
        }
      ],
      "stateMutability": "view",
      "type": "function"
    },
    {
      "inputs": [
        {
          "internalType": "address",
          "name": "_spender",
          "type": "address"
        },
        {
          "internalType": "uint256",
          "name": "_value",
          "type": "uint256"
        }
      ],
      "name": "approve",
      "outputs": [
        {
          "internalType": "bool",
          "name": "",
          "type": "bool"
        }
      ],
      "stateMutability": "nonpayable",
      "type": "function"
    },
    {
      "inputs": [
        {
          "internalType": "address",
          "name": "",
          "type": "address"
        }
      ],
      "name": "balanceOf",
      "outputs": [
        {
          "internalType": "uint256",
          "name": "",
          "type": "uint256"
        }
      ],
      "stateMutability": "view",
      "type": "function"
    },
    {
      "inputs": [],
      "name": "decimals",
      "outputs": [
        {
          "internalType": "uint8",
          "name": "",
          "type": "uint8"
        }
      ],
      "stateMutability": "view",
      "type": "function"
    },
    {
      "inputs": [],
      "name": "name",
      "outputs": [
        {
          "internalType": "string",
          "name": "",
          "type": "string"
        }
      ],
      "stateMutability": "view",
      "type": "function"
    },
    {
      "inputs": [],
      "name": "newOwner",
      "outputs": [
        {
          "internalType": "address",
          "name": "",
          "type": "address"
        }
      ],
      "stateMutability": "view",
      "type": "function"
    },
    {
      "inputs": [],
      "name": "owner",
      "outputs": [
        {
          "internalType": "address",
          "name": "",
          "type": "address"
        }
      ],
      "stateMutability": "view",
      "type": "function"
    },
    {
      "inputs": [],
      "name": "symbol",
      "outputs": [
        {
          "internalType": "string",
          "name": "",
          "type": "string"
        }
      ],
      "stateMutability": "view",
      "type": "function"
    },
    {
      "inputs": [],
      "name": "totalSupply",
      "outputs": [
        {
          "internalType": "uint256",
          "name": "",
          "type": "uint256"
        }
      ],
      "stateMutability": "view",
      "type": "function"
    },
    {
      "inputs": [
        {
          "internalType": "address",
          "name": "_to",
          "type": "address"
        },
        {
          "internalType": "uint256",
          "name": "_value",
          "type": "uint256"
        }
      ],
      "name": "transfer",
      "outputs": [
        {
          "internalType": "bool",
          "name": "",
          "type": "bool"
        }
      ],
      "stateMutability": "nonpayable",
      "type": "function"
    },
    {
      "inputs": [
        {
          "internalType": "address",
          "name": "_from",
          "type": "address"
        },
        {
          "internalType": "address",
          "name": "_to",
          "type": "address"
        },
        {
          "internalType": "uint256",
          "name": "_value",
          "type": "uint256"
        }
      ],
      "name": "transferFrom",
      "outputs": [
        {
          "internalType": "bool",
          "name": "",
          "type": "bool"
        }
      ],
      "stateMutability": "nonpayable",
      "type": "function"
    },
    {
      "inputs": [
        {
          "internalType": "address",
          "name": "_newOwner",
          "type": "address"
        }
      ],
      "name": "transferOwnership",
      "outputs": [],
      "stateMutability": "nonpayable",
      "type": "function"
    },
    {
      "inputs": [
        {
          "internalType": "address",
          "name": "_to",
          "type": "address"
        },
        {
          "internalType": "uint256",
          "name": "_amount",
          "type": "uint256"
        }
      ],
      "name": "issue",
      "outputs": [],
      "stateMutability": "nonpayable",
      "type": "function"
    },
    {
      "inputs": [
        {
          "internalType": "address",
          "name": "_from",
          "type": "address"
        },
        {
          "internalType": "uint256",
          "name": "_amount",
          "type": "uint256"
        }
      ],
      "name": "destroy",
      "outputs": [],
      "stateMutability": "nonpayable",
      "type": "function"
    }
  ],
  "bytecode": "0x60806040523480156200001157600080fd5b5060405162000f6f38038062000f6f833981810160405260608110156200003757600080fd5b81019080805160405193929190846401000000008211156200005857600080fd5b9083019060208201858111156200006e57600080fd5b82516401000000008111828201881017156200008957600080fd5b82525081516020918201929091019080838360005b83811015620000b85781810151838201526020016200009e565b50505050905090810190601f168015620000e65780820380516001836020036101000a031916815260200191505b50604052602001805160405193929190846401000000008211156200010a57600080fd5b9083019060208201858111156200012057600080fd5b82516401000000008111828201881017156200013b57600080fd5b82525081516020918201929091019080838360005b838110156200016a57818101518382015260200162000150565b50505050905090810190601f168015620001985780820380516001836020036101000a031916815260200191505b5060405260200151845190925084915083908390600090620001f4576040805162461bcd60e51b815260206004820152601060248201526f4552525f494e56414c49445f4e414d4560801b604482015290519081900360640190fd5b600083511162000240576040805162461bcd60e51b815260206004820152601260248201527111549497d253959053125117d4d6535093d360721b604482015290519081900360640190fd5b835162000255906000906020870190620002b8565b5082516200026b906001906020860190620002b8565b506002805460ff191660ff9390931692909217909155600381905533600081815260046020526040902091909155600680546001600160a01b031916909117905550620003549350505050565b828054600181600116156101000203166002900490600052602060002090601f016020900481019282601f10620002fb57805160ff19168380011785556200032b565b828001600101855582156200032b579182015b828111156200032b5782518255916020019190600101906200030e565b50620003399291506200033d565b5090565b5b808211156200033957600081556001016200033e565b610c0b80620003646000396000f3fe608060405234801561001057600080fd5b50600436106100f55760003560e01c8063867904b411610097578063a9059cbb11610066578063a9059cbb146102d9578063d4ee1d9014610305578063dd62ed3e1461030d578063f2fde38b1461033b576100f5565b8063867904b4146102555780638da5cb5b1461028157806395d89b41146102a5578063a24835d1146102ad576100f5565b806323b872dd116100d357806323b872dd146101d1578063313ce5671461020757806370a082311461022557806379ba50971461024b576100f5565b806306fdde03146100fa578063095ea7b31461017757806318160ddd146101b7575b600080fd5b610102610361565b6040805160208082528351818301528351919283929083019185019080838360005b8381101561013c578181015183820152602001610124565b50505050905090810190601f1680156101695780820380516001836020036101000a031916815260200191505b509250505060405180910390f35b6101a36004803603604081101561018d57600080fd5b506001600160a01b0381351690602001356103ef565b604080519115158252519081900360200190f35b6101bf610463565b60408051918252519081900360200190f35b6101a3600480360360608110156101e757600080fd5b506001600160a01b03813581169160208101359091169060400135610469565b61020f610568565b6040805160ff9092168252519081900360200190f35b6101bf6004803603602081101561023b57600080fd5b50356001600160a01b0316610571565b610253610583565b005b6102536004803603604081101561026b57600080fd5b506001600160a01b03813516906020013561063c565b610289610712565b604080516001600160a01b039092168252519081900360200190f35b610102610721565b610253600480360360408110156102c357600080fd5b506001600160a01b03813516906020013561077b565b6101a3600480360360408110156102ef57600080fd5b506001600160a01b038135169060200135610835565b6102896108d4565b6101bf6004803603604081101561032357600080fd5b506001600160a01b03813581169160200135166108e3565b6102536004803603602081101561035157600080fd5b50356001600160a01b0316610900565b6000805460408051602060026001851615610100026000190190941693909304601f810184900484028201840190925281815292918301828280156103e75780601f106103bc576101008083540402835291602001916103e7565b820191906000526020600020905b8154815290600101906020018083116103ca57829003601f168201915b505050505081565b6000826103fb8161097e565b3360008181526005602090815260408083206001600160a01b03891680855290835292819020879055805187815290519293927f8c5be1e5ebec7d5bd14f71427d1e84f3dd0314c0f7b2291e5b200ac8c7c3b925929181900390910190a35060019392505050565b60035481565b6000836104758161097e565b8361047f8161097e565b6001600160a01b03861660009081526005602090815260408083203384529091529020546104ad90856109d2565b6001600160a01b0387166000818152600560209081526040808320338452825280832094909455918152600490915220546104e890856109d2565b6001600160a01b0380881660009081526004602052604080822093909355908716815220546105179085610a1b565b6001600160a01b0380871660008181526004602090815260409182902094909455805188815290519193928a1692600080516020610bb683398151915292918290030190a350600195945050505050565b60025460ff1681565b60046020526000908152604090205481565b6007546001600160a01b031633146105d6576040805162461bcd60e51b815260206004820152601160248201527011549497d050d0d154d4d7d11153925151607a1b604482015290519081900360640190fd5b6007546006546040516001600160a01b0392831692909116907f343765429aea5a34b3ff6a3785a98a5abb2597aca87bfbb58632c173d585373a90600090a360078054600680546001600160a01b03199081166001600160a01b03841617909155169055565b610644610a75565b8161064e8161097e565b8261065881610aca565b6003546106659084610a1b565b6003556001600160a01b03841660009081526004602052604090205461068b9084610a1b565b6001600160a01b03851660009081526004602090815260409182902092909255805185815290517f9386c90217c323f58030f9dadcbc938f807a940f4ff41cd4cead9562f5da7dc3929181900390910190a16040805184815290516001600160a01b03861691600091600080516020610bb68339815191529181900360200190a350505050565b6006546001600160a01b031681565b60018054604080516020600284861615610100026000190190941693909304601f810184900484028201840190925281815292918301828280156103e75780601f106103bc576101008083540402835291602001916103e7565b610783610a75565b6001600160a01b0382166000908152600460205260409020546107a690826109d2565b6001600160a01b0383166000908152600460205260409020556003546107cc90826109d2565b6003556040805182815290516000916001600160a01b03851691600080516020610bb68339815191529181900360200190a36040805182815290517f9a1b418bc061a5d80270261562e6986a35d995f8051145f277be16103abd34539181900360200190a15050565b6000826108418161097e565b3360009081526004602052604090205461085b90846109d2565b33600090815260046020526040808220929092556001600160a01b038616815220546108879084610a1b565b6001600160a01b038516600081815260046020908152604091829020939093558051868152905191923392600080516020610bb68339815191529281900390910190a35060019392505050565b6007546001600160a01b031681565b600560209081526000928352604080842090915290825290205481565b610908610a75565b6006546001600160a01b038281169116141561095c576040805162461bcd60e51b815260206004820152600e60248201526d22a9292fa9a0a6a2afa7aba722a960911b604482015290519081900360640190fd5b600780546001600160a01b0319166001600160a01b0392909216919091179055565b6001600160a01b0381166109cf576040805162461bcd60e51b81526020600482015260136024820152724552525f494e56414c49445f4144445245535360681b604482015290519081900360640190fd5b50565b6000610a1483836040518060400160405280601e81526020017f536166654d6174683a207375627472616374696f6e206f766572666c6f770000815250610b1e565b9392505050565b600082820183811015610a14576040805162461bcd60e51b815260206004820152601b60248201527f536166654d6174683a206164646974696f6e206f766572666c6f770000000000604482015290519081900360640190fd5b6006546001600160a01b03163314610ac8576040805162461bcd60e51b815260206004820152601160248201527011549497d050d0d154d4d7d11153925151607a1b604482015290519081900360640190fd5b565b6001600160a01b0381163014156109cf576040805162461bcd60e51b815260206004820152601360248201527222a9292fa0a2222922a9a9afa4a9afa9a2a62360691b604482015290519081900360640190fd5b60008184841115610bad5760405162461bcd60e51b81526004018080602001828103825283818151815260200191508051906020019080838360005b83811015610b72578181015183820152602001610b5a565b50505050905090810190601f168015610b9f5780820380516001836020036101000a031916815260200191505b509250505060405180910390fd5b50505090039056feddf252ad1be2c89b69c2b068fc378daa952ba7f163c4a11628f55a4df523b3efa2646970667358221220dc4dcb0223ddd34fba57c80cb2623ffba309e70e8c7dbead6af78eacdb63559164736f6c634300060c0033",
  "immutableReferences": {},
  "source": "// SPDX-License-Identifier: SEE LICENSE IN LICENSE\npragma solidity 0.6.12;\nimport \"./ERC20Token.sol\";\nimport \"./interfaces/IDSToken.sol\";\nimport \"../utility/Owned.sol\";\n\n/**\n * @dev This contract represents a token with dynamic supply.\n *\n * The owner of the token can mint/burn tokens to/from any account.\n */\ncontract DSToken is IDSToken, ERC20Token, Owned {\n    using SafeMath for uint256;\n\n    /**\n     * @dev triggered when the total supply is increased\n     *\n     * @param _amount  amount that gets added to the supply\n     */\n    event Issuance(uint256 _amount);\n\n    /**\n     * @dev triggered when the total supply is decreased\n     *\n     * @param _amount  amount that gets removed from the supply\n     */\n    event Destruction(uint256 _amount);\n\n    /**\n     * @dev initializes a new DSToken instance\n     *\n     * @param _name       token name\n     * @param _symbol     token short symbol, minimum 1 character\n     * @param _decimals   for display purposes only\n     */\n    constructor(\n        string memory _name,\n        string memory _symbol,\n        uint8 _decimals\n    ) public ERC20Token(_name, _symbol, _decimals, 0) {}\n\n    /**\n     * @dev increases the token supply and sends the new tokens to the given account\n     * can only be called by the contract owner\n     *\n     * @param _to      account to receive the new amount\n     * @param _amount  amount to increase the supply by\n     */\n    function issue(address _to, uint256 _amount) public override ownerOnly validAddress(_to) notThis(_to) {\n        totalSupply = totalSupply.add(_amount);\n        balanceOf[_to] = balanceOf[_to].add(_amount);\n\n        emit Issuance(_amount);\n        emit Transfer(address(0), _to, _amount);\n    }\n\n    /**\n     * @dev removes tokens from the given account and decreases the token supply\n     * can only be called by the contract owner\n     *\n     * @param _from    account to remove the amount from\n     * @param _amount  amount to decrease the supply by\n     */\n    function destroy(address _from, uint256 _amount) public override ownerOnly {\n        balanceOf[_from] = balanceOf[_from].sub(_amount);\n        totalSupply = totalSupply.sub(_amount);\n\n        emit Transfer(_from, address(0), _amount);\n        emit Destruction(_amount);\n    }\n}\n",
  "sourcePath": "/home/roy/my_workspace/contracts-solidity/solidity/contracts/token/DSToken.sol",
  "compiler": {
    "name": "solc",
    "version": "0.6.12+commit.27d51765.Emscripten.clang"
  },
  "schemaVersion": "3.2.3",
  "updatedAt": "2021-02-03T14:53:35.975Z",
  "devdoc": {
    "details": "This contract represents a token with dynamic supply. The owner of the token can mint/burn tokens to/from any account.",
    "events": {
      "Destruction(uint256)": {
        "details": "triggered when the total supply is decreased",
        "params": {
          "_amount": "amount that gets removed from the supply"
        }
      },
      "Issuance(uint256)": {
        "details": "triggered when the total supply is increased",
        "params": {
          "_amount": "amount that gets added to the supply"
        }
      }
    },
    "kind": "dev",
    "methods": {
      "acceptOwnership()": {
        "details": "used by a new owner to accept an ownership transfer"
      },
      "approve(address,uint256)": {
        "details": "allows another account/contract to transfers tokens on behalf of the caller throws on any error rather then return a false flag to minimize user errors",
        "params": {
          "_spender": "approved address",
          "_value": "allowance amount"
        },
        "returns": {
          "_0": "true if the approval was successful, false if it wasn't"
        }
      },
      "constructor": {
        "details": "initializes a new DSToken instance",
        "params": {
          "_decimals": "for display purposes only",
          "_name": "token name",
          "_symbol": "token short symbol, minimum 1 character"
        }
      },
      "destroy(address,uint256)": {
        "details": "removes tokens from the given account and decreases the token supply can only be called by the contract owner",
        "params": {
          "_amount": "amount to decrease the supply by",
          "_from": "account to remove the amount from"
        }
      },
      "issue(address,uint256)": {
        "details": "increases the token supply and sends the new tokens to the given account can only be called by the contract owner",
        "params": {
          "_amount": "amount to increase the supply by",
          "_to": "account to receive the new amount"
        }
      },
      "transfer(address,uint256)": {
        "details": "transfers tokens to a given address throws on any error rather then return a false flag to minimize user errors",
        "params": {
          "_to": "target address",
          "_value": "transfer amount"
        },
        "returns": {
          "_0": "true if the transfer was successful, false if it wasn't"
        }
      },
      "transferFrom(address,address,uint256)": {
        "details": "transfers tokens to a given address on behalf of another address throws on any error rather then return a false flag to minimize user errors",
        "params": {
          "_from": "source address",
          "_to": "target address",
          "_value": "transfer amount"
        },
        "returns": {
          "_0": "true if the transfer was successful, false if it wasn't"
        }
      },
      "transferOwnership(address)": {
        "details": "allows transferring the contract ownership the new owner still needs to accept the transfer can only be called by the contract owner",
        "params": {
          "_newOwner": "new contract owner"
        }
      }
    },
    "version": 1
  },
  "userdoc": {
    "kind": "user",
    "methods": {},
    "version": 1
  }
}