{
  "contractName": "Multicall",
  "abi": [
    {
      "constant": false,
      "inputs": [
        {
          "components": [
            {
              "internalType": "address",
              "name": "target",
              "type": "address"
            },
            {
              "internalType": "bytes",
              "name": "callData",
              "type": "bytes"
            }
          ],
          "internalType": "struct Multicall.Call[]",
          "name": "calls",
          "type": "tuple[]"
        },
        {
          "internalType": "bool",
          "name": "strict",
          "type": "bool"
        }
      ],
      "name": "aggregate",
      "outputs": [
        {
          "internalType": "uint256",
          "name": "blockNumber",
          "type": "uint256"
        },
        {
          "components": [
            {
              "internalType": "bool",
              "name": "success",
              "type": "bool"
            },
            {
              "internalType": "bytes",
              "name": "data",
              "type": "bytes"
            }
          ],
          "internalType": "struct Multicall.Return[]",
          "name": "returnData",
          "type": "tuple[]"
        }
      ],
      "payable": false,
      "stateMutability": "nonpayable",
      "type": "function"
    },
    {
      "constant": true,
      "inputs": [
        {
          "internalType": "address",
          "name": "addr",
          "type": "address"
        }
      ],
      "name": "getEthBalance",
      "outputs": [
        {
          "internalType": "uint256",
          "name": "balance",
          "type": "uint256"
        }
      ],
      "payable": false,
      "stateMutability": "view",
      "type": "function"
    },
    {
      "constant": true,
      "inputs": [
        {
          "internalType": "uint256",
          "name": "blockNumber",
          "type": "uint256"
        }
      ],
      "name": "getBlockHash",
      "outputs": [
        {
          "internalType": "bytes32",
          "name": "blockHash",
          "type": "bytes32"
        }
      ],
      "payable": false,
      "stateMutability": "view",
      "type": "function"
    },
    {
      "constant": true,
      "inputs": [],
      "name": "getLastBlockHash",
      "outputs": [
        {
          "internalType": "bytes32",
          "name": "blockHash",
          "type": "bytes32"
        }
      ],
      "payable": false,
      "stateMutability": "view",
      "type": "function"
    },
    {
      "constant": true,
      "inputs": [],
      "name": "getCurrentBlockTimestamp",
      "outputs": [
        {
          "internalType": "uint256",
          "name": "timestamp",
          "type": "uint256"
        }
      ],
      "payable": false,
      "stateMutability": "view",
      "type": "function"
    },
    {
      "constant": true,
      "inputs": [],
      "name": "getCurrentBlockDifficulty",
      "outputs": [
        {
          "internalType": "uint256",
          "name": "difficulty",
          "type": "uint256"
        }
      ],
      "payable": false,
      "stateMutability": "view",
      "type": "function"
    },
    {
      "constant": true,
      "inputs": [],
      "name": "getCurrentBlockGasLimit",
      "outputs": [
        {
          "internalType": "uint256",
          "name": "gaslimit",
          "type": "uint256"
        }
      ],
      "payable": false,
      "stateMutability": "view",
      "type": "function"
    },
    {
      "constant": true,
      "inputs": [],
      "name": "getCurrentBlockCoinbase",
      "outputs": [
        {
          "internalType": "address",
          "name": "coinbase",
          "type": "address"
        }
      ],
      "payable": false,
      "stateMutability": "view",
      "type": "function"
    }
  ],
  "bytecode": "0x608060405234801561001057600080fd5b50610993806100206000396000f3fe608060405234801561001057600080fd5b50600436106100885760003560e01c806372425d9d1161005b57806372425d9d1461012a57806386d516e814610148578063a8b0574e14610166578063ee82ac5e1461018457610088565b80630f28c97d1461008d57806317352e13146100ab57806327e86d6e146100dc5780634d2301cc146100fa575b600080fd5b6100956101b4565b6040516100a2919061073a565b60405180910390f35b6100c560048036036100c09190810190610504565b6101bc565b6040516100d3929190610755565b60405180910390f35b6100e4610304565b6040516100f1919061071f565b60405180910390f35b610114600480360361010f91908101906104db565b610310565b604051610121919061073a565b60405180910390f35b610132610331565b60405161013f919061073a565b60405180910390f35b610150610339565b60405161015d919061073a565b60405180910390f35b61016e610341565b60405161017b9190610704565b60405180910390f35b61019e60048036036101999190810190610558565b610349565b6040516101ab919061071f565b60405180910390f35b600042905090565b6000606043915083516040519080825280602002602001820160405280156101fe57816020015b6101eb610354565b8152602001906001900390816101e35790505b50905060008090505b84518110156102fc576000606086838151811061022057fe5b60200260200101516000015173ffffffffffffffffffffffffffffffffffffffff1687848151811061024e57fe5b60200260200101516020015160405161026791906106ed565b6000604051808303816000865af19150503d80600081146102a4576040519150601f19603f3d011682016040523d82523d6000602084013e6102a9565b606091505b509150915085156102bf57816102be57600080fd5b5b60405180604001604052808315158152602001828152508484815181106102e257fe5b602002602001018190525050508080600101915050610207565b509250929050565b60006001430340905090565b60008173ffffffffffffffffffffffffffffffffffffffff16319050919050565b600044905090565b600045905090565b600041905090565b600081409050919050565b6040518060400160405280600015158152602001606081525090565b60008135905061037f8161090b565b92915050565b600082601f83011261039657600080fd5b81356103a96103a4826107b2565b610785565b9150818183526020840193506020810190508360005b838110156103ef57813586016103d58882610462565b8452602084019350602083019250506001810190506103bf565b5050505092915050565b60008135905061040881610922565b92915050565b600082601f83011261041f57600080fd5b813561043261042d826107da565b610785565b9150808252602083016020830185838301111561044e57600080fd5b6104598382846108b8565b50505092915050565b60006040828403121561047457600080fd5b61047e6040610785565b9050600061048e84828501610370565b600083015250602082013567ffffffffffffffff8111156104ae57600080fd5b6104ba8482850161040e565b60208301525092915050565b6000813590506104d581610939565b92915050565b6000602082840312156104ed57600080fd5b60006104fb84828501610370565b91505092915050565b6000806040838503121561051757600080fd5b600083013567ffffffffffffffff81111561053157600080fd5b61053d85828601610385565b925050602061054e858286016103f9565b9150509250929050565b60006020828403121561056a57600080fd5b6000610578848285016104c6565b91505092915050565b600061058d83836106a1565b905092915050565b61059e81610866565b82525050565b60006105af82610816565b6105b98185610839565b9350836020820285016105cb85610806565b8060005b8581101561060757848403895281516105e88582610581565b94506105f38361082c565b925060208a019950506001810190506105cf565b50829750879550505050505092915050565b61062281610878565b82525050565b61063181610884565b82525050565b600061064282610821565b61064c818561084a565b935061065c8185602086016108c7565b610665816108fa565b840191505092915050565b600061067b82610821565b610685818561085b565b93506106958185602086016108c7565b80840191505092915050565b60006040830160008301516106b96000860182610619565b50602083015184820360208601526106d18282610637565b9150508091505092915050565b6106e7816108ae565b82525050565b60006106f98284610670565b915081905092915050565b60006020820190506107196000830184610595565b92915050565b60006020820190506107346000830184610628565b92915050565b600060208201905061074f60008301846106de565b92915050565b600060408201905061076a60008301856106de565b818103602083015261077c81846105a4565b90509392505050565b6000604051905081810181811067ffffffffffffffff821117156107a857600080fd5b8060405250919050565b600067ffffffffffffffff8211156107c957600080fd5b602082029050602081019050919050565b600067ffffffffffffffff8211156107f157600080fd5b601f19601f8301169050602081019050919050565b6000819050602082019050919050565b600081519050919050565b600081519050919050565b6000602082019050919050565b600082825260208201905092915050565b600082825260208201905092915050565b600081905092915050565b60006108718261088e565b9050919050565b60008115159050919050565b6000819050919050565b600073ffffffffffffffffffffffffffffffffffffffff82169050919050565b6000819050919050565b82818337600083830152505050565b60005b838110156108e55780820151818401526020810190506108ca565b838111156108f4576000848401525b50505050565b6000601f19601f8301169050919050565b61091481610866565b811461091f57600080fd5b50565b61092b81610878565b811461093657600080fd5b50565b610942816108ae565b811461094d57600080fd5b5056fea365627a7a72315820a21afd7ba9904892f7e82c14b0a499fe052bc235ecb68b0f8edfdf8d40b8d4916c6578706572696d656e74616cf564736f6c63430005100040",
  "source": "/**\n *Submitted for verification at Etherscan.io on 2019-12-10\n*/\n\npragma solidity >=0.5.0;\npragma experimental ABIEncoderV2;\n\n/// @title Multicall - Aggregate results from multiple read-only function calls\n/// @author Michael Elliot <mike@makerdao.com>\n/// @author Joshua Levine <joshua@makerdao.com>\n/// @author Nick Johnson <arachnid@notdot.net>\n/// @author Bogdan Dumitru <bogdan@bowd.io>\n\ncontract Multicall {\n    struct Call {\n        address target;\n        bytes callData;\n    }\n    struct Return {\n      bool success;\n      bytes data;\n\n    }\n    function aggregate(Call[] memory calls, bool strict) public returns (uint256 blockNumber, Return[] memory returnData) {\n        blockNumber = block.number;\n        returnData = new Return[](calls.length);\n        for(uint256 i = 0; i < calls.length; i++) {\n            (bool success, bytes memory ret) = calls[i].target.call(calls[i].callData);\n            if (strict) {\n              require(success);\n            }\n            returnData[i] = Return(success, ret);\n        }\n    }\n    // Helper functions\n    function getEthBalance(address addr) public view returns (uint256 balance) {\n        balance = addr.balance;\n    }\n    function getBlockHash(uint256 blockNumber) public view returns (bytes32 blockHash) {\n        blockHash = blockhash(blockNumber);\n    }\n    function getLastBlockHash() public view returns (bytes32 blockHash) {\n        blockHash = blockhash(block.number - 1);\n    }\n    function getCurrentBlockTimestamp() public view returns (uint256 timestamp) {\n        timestamp = block.timestamp;\n    }\n    function getCurrentBlockDifficulty() public view returns (uint256 difficulty) {\n        difficulty = block.difficulty;\n    }\n    function getCurrentBlockGasLimit() public view returns (uint256 gaslimit) {\n        gaslimit = block.gaslimit;\n    }\n    function getCurrentBlockCoinbase() public view returns (address coinbase) {\n        coinbase = block.coinbase;\n    }\n}",
  "sourcePath": "/home/ubuntu/my_workspace/multicall/contracts/Multicall.sol",
  "compiler": {
    "name": "solc",
    "version": "0.5.16+commit.9c3226ce.Emscripten.clang"
  },
  "schemaVersion": "3.0.23",
  "updatedAt": "2020-02-21T04:57:57.318Z",
  "networkType": "ethereum",
  "devdoc": {
    "author": "Michael Elliot <mike@makerdao.com>Joshua Levine <joshua@makerdao.com>Nick Johnson <arachnid@notdot.net>Bogdan Dumitru <bogdan@bowd.io>",
    "methods": {},
    "title": "Multicall - Aggregate results from multiple read-only function calls"
  },
  "userdoc": {
    "methods": {}
  }
}